{
  "contractName": "DocumentManagement",
  "abi": [
    {
      "anonymous": false,
      "inputs": [
        {
          "indexed": false,
          "internalType": "address",
          "name": "documentOwner",
          "type": "address"
        },
        {
          "indexed": false,
          "internalType": "string",
          "name": "documentHash",
          "type": "string"
        }
      ],
      "name": "Stored",
      "type": "event"
    },
    {
      "inputs": [],
      "name": "documentHash",
      "outputs": [
        {
          "internalType": "string",
          "name": "",
          "type": "string"
        }
      ],
      "stateMutability": "view",
      "type": "function",
      "constant": true
    },
    {
      "inputs": [],
      "name": "documentName",
      "outputs": [
        {
          "internalType": "string",
          "name": "",
          "type": "string"
        }
      ],
      "stateMutability": "view",
      "type": "function",
      "constant": true
    },
    {
      "inputs": [],
      "name": "documentOwner",
      "outputs": [
        {
          "internalType": "address",
          "name": "",
          "type": "address"
        }
      ],
      "stateMutability": "view",
      "type": "function",
      "constant": true
    },
    {
      "inputs": [
        {
          "internalType": "string",
          "name": "hash",
          "type": "string"
        },
        {
          "internalType": "string",
          "name": "name",
          "type": "string"
        }
      ],
      "name": "storeDocument",
      "outputs": [
        {
          "internalType": "bool",
          "name": "",
          "type": "bool"
        }
      ],
      "stateMutability": "nonpayable",
      "type": "function"
    }
  ],
  "bytecode": "0x60806040526040518060200160405280600081525060019081620000249190620002d4565b506040518060200160405280600081525060029081620000459190620002d4565b503480156200005357600080fd5b50620003bb565b600081519050919050565b7f4e487b7100000000000000000000000000000000000000000000000000000000600052604160045260246000fd5b7f4e487b7100000000000000000000000000000000000000000000000000000000600052602260045260246000fd5b60006002820490506001821680620000dc57607f821691505b602082108103620000f257620000f162000094565b5b50919050565b60008190508160005260206000209050919050565b60006020601f8301049050919050565b600082821b905092915050565b6000600883026200015c7fffffffffffffffffffffffffffffffffffffffffffffffffffffffffffffffff826200011d565b6200016886836200011d565b95508019841693508086168417925050509392505050565b6000819050919050565b6000819050919050565b6000620001b5620001af620001a98462000180565b6200018a565b62000180565b9050919050565b6000819050919050565b620001d18362000194565b620001e9620001e082620001bc565b8484546200012a565b825550505050565b600090565b62000200620001f1565b6200020d818484620001c6565b505050565b5b81811015620002355762000229600082620001f6565b60018101905062000213565b5050565b601f82111562000284576200024e81620000f8565b62000259846200010d565b8101602085101562000269578190505b6200028162000278856200010d565b83018262000212565b50505b505050565b600082821c905092915050565b6000620002a96000198460080262000289565b1980831691505092915050565b6000620002c4838362000296565b9150826002028217905092915050565b620002df826200005a565b67ffffffffffffffff811115620002fb57620002fa62000065565b5b620003078254620000c3565b6200031482828562000239565b600060209050601f8311600181146200034c576000841562000337578287015190505b620003438582620002b6565b865550620003b3565b601f1984166200035c86620000f8565b60005b8281101562000386578489015182556001820191506020850194506020810190506200035f565b86831015620003a65784890151620003a2601f89168262000296565b8355505b6001600288020188555050505b505050505050565b610a6780620003cb6000396000f3fe608060405234801561001057600080fd5b506004361061004c5760003560e01c8063051846ee146100515780636b4656011461006f578063797bec771461008d578063f9c71f87146100ab575b600080fd5b6100596100db565b6040516100669190610365565b60405180910390f35b6100776100ff565b6040516100849190610410565b60405180910390f35b61009561018d565b6040516100a29190610410565b60405180910390f35b6100c560048036038101906100c0919061057b565b61021b565b6040516100d2919061060e565b60405180910390f35b60008054906101000a900473ffffffffffffffffffffffffffffffffffffffff1681565b6002805461010c90610658565b80601f016020809104026020016040519081016040528092919081815260200182805461013890610658565b80156101855780601f1061015a57610100808354040283529160200191610185565b820191906000526020600020905b81548152906001019060200180831161016857829003601f168201915b505050505081565b6001805461019a90610658565b80601f01602080910402602001604051908101604052809291908181526020018280546101c690610658565b80156102135780601f106101e857610100808354040283529160200191610213565b820191906000526020600020905b8154815290600101906020018083116101f657829003601f168201915b505050505081565b600080835111610260576040517f08c379a0000000000000000000000000000000000000000000000000000000008152600401610257906106d5565b60405180910390fd5b336000806101000a81548173ffffffffffffffffffffffffffffffffffffffff021916908373ffffffffffffffffffffffffffffffffffffffff16021790555082600190816102af91906108ab565b5081600290816102bf91906108ab565b507fe16e0a55f2825d94148c7a63a2855dd1c8eb25e610475d5c71492547357fb96360008054906101000a900473ffffffffffffffffffffffffffffffffffffffff166001604051610312929190610a01565b60405180910390a16001905092915050565b600073ffffffffffffffffffffffffffffffffffffffff82169050919050565b600061034f82610324565b9050919050565b61035f81610344565b82525050565b600060208201905061037a6000830184610356565b92915050565b600081519050919050565b600082825260208201905092915050565b60005b838110156103ba57808201518184015260208101905061039f565b60008484015250505050565b6000601f19601f8301169050919050565b60006103e282610380565b6103ec818561038b565b93506103fc81856020860161039c565b610405816103c6565b840191505092915050565b6000602082019050818103600083015261042a81846103d7565b905092915050565b6000604051905090565b600080fd5b600080fd5b600080fd5b600080fd5b7f4e487b7100000000000000000000000000000000000000000000000000000000600052604160045260246000fd5b610488826103c6565b810181811067ffffffffffffffff821117156104a7576104a6610450565b5b80604052505050565b60006104ba610432565b90506104c6828261047f565b919050565b600067ffffffffffffffff8211156104e6576104e5610450565b5b6104ef826103c6565b9050602081019050919050565b82818337600083830152505050565b600061051e610519846104cb565b6104b0565b90508281526020810184848401111561053a5761053961044b565b5b6105458482856104fc565b509392505050565b600082601f83011261056257610561610446565b5b813561057284826020860161050b565b91505092915050565b600080604083850312156105925761059161043c565b5b600083013567ffffffffffffffff8111156105b0576105af610441565b5b6105bc8582860161054d565b925050602083013567ffffffffffffffff8111156105dd576105dc610441565b5b6105e98582860161054d565b9150509250929050565b60008115159050919050565b610608816105f3565b82525050565b600060208201905061062360008301846105ff565b92915050565b7f4e487b7100000000000000000000000000000000000000000000000000000000600052602260045260246000fd5b6000600282049050600182168061067057607f821691505b60208210810361068357610682610629565b5b50919050565b7f446f63756d656e742068617368206d757374206265206e6f6e2d656d70747900600082015250565b60006106bf601f8361038b565b91506106ca82610689565b602082019050919050565b600060208201905081810360008301526106ee816106b2565b9050919050565b60008190508160005260206000209050919050565b60006020601f8301049050919050565b600082821b905092915050565b6000600883026107577fffffffffffffffffffffffffffffffffffffffffffffffffffffffffffffffff8261071a565b610761868361071a565b95508019841693508086168417925050509392505050565b6000819050919050565b6000819050919050565b60006107a86107a361079e84610779565b610783565b610779565b9050919050565b6000819050919050565b6107c28361078d565b6107d66107ce826107af565b848454610727565b825550505050565b600090565b6107eb6107de565b6107f68184846107b9565b505050565b5b8181101561081a5761080f6000826107e3565b6001810190506107fc565b5050565b601f82111561085f57610830816106f5565b6108398461070a565b81016020851015610848578190505b61085c6108548561070a565b8301826107fb565b50505b505050565b600082821c905092915050565b600061088260001984600802610864565b1980831691505092915050565b600061089b8383610871565b9150826002028217905092915050565b6108b482610380565b67ffffffffffffffff8111156108cd576108cc610450565b5b6108d78254610658565b6108e282828561081e565b600060209050601f8311600181146109155760008415610903578287015190505b61090d858261088f565b865550610975565b601f198416610923866106f5565b60005b8281101561094b57848901518255600182019150602085019450602081019050610926565b868310156109685784890151610964601f891682610871565b8355505b6001600288020188555050505b505050505050565b6000815461098a81610658565b610994818661038b565b945060018216600081146109af57600181146109c5576109f8565b60ff1983168652811515602002860193506109f8565b6109ce856106f5565b60005b838110156109f0578154818901526001820191506020810190506109d1565b808801955050505b50505092915050565b6000604082019050610a166000830185610356565b8181036020830152610a28818461097d565b9050939250505056fea264697066735822122089c6f22ddc76e9d21765701c194177dcdc4ad6e5ae2bf689bbd2cf0b1dfca76664736f6c63430008130033",
  "immutableReferences": {},
  "source": "// SPDX-License-Identifier: MIT \r\npragma solidity ^0.8.19;\r\n\r\ncontract DocumentManagement {\r\n    address public documentOwner;\r\n    string public documentHash = '';\r\n    string public documentName = '';\r\n\r\n    event Stored(address documentOwner, string documentHash);\r\n\r\n    function storeDocument(string memory hash, string memory name) public returns (bool) {\r\n        require(bytes(hash).length > 0,'Document hash must be non-empty');\r\n        documentOwner = msg.sender;\r\n        documentHash = hash;\r\n        documentName = name;\r\n        emit Stored(documentOwner, documentHash);\r\n        return true;\r\n    }\r\n}",
  "sourcePath": "D:\\projeto_TCC\\component_contract\\contracts\\DocumentManagement.sol",
  "compiler": {
    "name": "solc",
    "version": "0.8.19+commit.7dd6d404.Emscripten.clang"
  },
  "schemaVersion": "3.4.14",
  "updatedAt": "2023-06-09T17:09:47.798Z",
  "networkType": "ethereum",
  "devdoc": {
    "kind": "dev",
    "methods": {},
    "version": 1
  },
  "userdoc": {
    "kind": "user",
    "methods": {},
    "version": 1
  }
}